{
  "transactions": [
    {
      "hash": "0x69fa64190429b98c0fecd7ee4319150d13f401dd4bc07d2b866241dd62ce0c24",
      "transactionType": "CALL",
      "contractName": null,
      "contractAddress": "0x440e21ab40b8a33ec02f3a71c54ccd860a5f5861",
      "function": "claim(uint256)",
      "arguments": [
        "8471431223680182081302404692302276182178422039038014080562802595590641335227"
      ],
      "transaction": {
        "from": "0xe1858a2cc57581cda70f089c9b7f1edde13e8fee",
        "to": "0x440e21ab40b8a33ec02f3a71c54ccd860a5f5861",
        "gas": "0xd683",
        "value": "0x0",
        "input": "0x379607f512baa9000000000000000000000000000000000000000000000000000000bbbb",
        "nonce": "0xb",
        "chainId": "0xaa36a7"
      },
      "additionalContracts": [],
      "isFixedGasLimit": false
    }
  ],
  "receipts": [
    {
      "status": "0x1",
      "cumulativeGasUsed": "0xf59010",
      "logs": [
        {
          "address": "0xf3af54943d6ef98c2b083fc6e69d36019ee5459d",
          "topics": [
            "0xddf252ad1be2c89b69c2b068fc378daa952ba7f163c4a11628f55a4df523b3ef",
            "0x000000000000000000000000440e21ab40b8a33ec02f3a71c54ccd860a5f5861",
            "0x000000000000000000000000e1858a2cc57581cda70f089c9b7f1edde13e8fee"
          ],
          "data": "0x0000000000000000000000000000000000000000000000000de0b6b3a7640000",
          "blockHash": "0x6282750c644a64b52c8c5667edb0b7291320435e2f0d0a24cd887d664ddebea2",
          "blockNumber": "0x64bfdc",
          "transactionHash": "0x69fa64190429b98c0fecd7ee4319150d13f401dd4bc07d2b866241dd62ce0c24",
          "transactionIndex": "0x61",
          "logIndex": "0x61",
          "removed": false
        }
      ],
      "logsBloom": "0x00000008000000000000000000000000001000000000000000000000000000000000000000000000001000000000000000000000000000000000000000000000004000000000000000000008000000000000000000000000000000000080000000000000000000000000000000000000000000200000000000000010000000000000000000000000000000000000000000000000000000000000000000000000000000000000000000000002000000000000000200000000000000000000000000008002000000000000000000000000000000000000000000000000000000000000000000000000000000000000000000000000000000000000000000000000",
      "type": "0x2",
      "transactionHash": "0x69fa64190429b98c0fecd7ee4319150d13f401dd4bc07d2b866241dd62ce0c24",
      "transactionIndex": "0x61",
      "blockHash": "0x6282750c644a64b52c8c5667edb0b7291320435e2f0d0a24cd887d664ddebea2",
      "blockNumber": "0x64bfdc",
      "gasUsed": "0x9b4f",
      "effectiveGasPrice": "0x4121db41",
      "from": "0xe1858a2cc57581cda70f089c9b7f1edde13e8fee",
      "to": "0x440e21ab40b8a33ec02f3a71c54ccd860a5f5861",
      "contractAddress": null
    }
  ],
  "libraries": [],
  "pending": [],
  "returns": {},
  "timestamp": 1725057387,
  "chain": 11155111,
  "commit": "bac9c5c"
}