{
  "transactions": [
    {
      "hash": "0x78b297695c2d6bfc1282eec0b3d36e1ad32c5bb02dc7c05314c94bc1acd3cba4",
      "transactionType": "CALL",
      "contractName": null,
      "contractAddress": "0xf3af54943d6ef98c2b083fc6e69d36019ee5459d",
      "function": "approve(address,uint256)",
      "arguments": [
        "0x440E21aB40b8A33EC02f3a71C54ccD860A5f5861",
        "115792089237316195423570985008687907853269984665640564039457584007913129639935"
      ],
      "transaction": {
        "from": "0xe1858a2cc57581cda70f089c9b7f1edde13e8fee",
        "to": "0xf3af54943d6ef98c2b083fc6e69d36019ee5459d",
        "gas": "0x10a48",
        "value": "0x0",
        "input": "0x095ea7b3000000000000000000000000440e21ab40b8a33ec02f3a71c54ccd860a5f5861ffffffffffffffffffffffffffffffffffffffffffffffffffffffffffffffff",
        "nonce": "0x7",
        "chainId": "0xaa36a7"
      },
      "additionalContracts": [],
      "isFixedGasLimit": false
    },
    {
      "hash": "0xa4e0288a7698bee8eb47a7060f24e744e8b99eaf6d623b6243a2eaaf10692318",
      "transactionType": "CALL",
      "contractName": null,
      "contractAddress": "0x440e21ab40b8a33ec02f3a71c54ccd860a5f5861",
      "function": "deposit()",
      "arguments": [],
      "transaction": {
        "from": "0xe1858a2cc57581cda70f089c9b7f1edde13e8fee",
        "to": "0x440e21ab40b8a33ec02f3a71c54ccd860a5f5861",
        "gas": "0x1573d",
        "value": "0x0",
        "input": "0xd0e30db0",
        "nonce": "0x8",
        "chainId": "0xaa36a7"
      },
      "additionalContracts": [],
      "isFixedGasLimit": false
    }
  ],
  "receipts": [
    {
      "status": "0x1",
      "cumulativeGasUsed": "0xa73e7b",
      "logs": [
        {
          "address": "0xf3af54943d6ef98c2b083fc6e69d36019ee5459d",
          "topics": [
            "0x8c5be1e5ebec7d5bd14f71427d1e84f3dd0314c0f7b2291e5b200ac8c7c3b925",
            "0x000000000000000000000000e1858a2cc57581cda70f089c9b7f1edde13e8fee",
            "0x000000000000000000000000440e21ab40b8a33ec02f3a71c54ccd860a5f5861"
          ],
          "data": "0xffffffffffffffffffffffffffffffffffffffffffffffffffffffffffffffff",
          "blockHash": "0x7f62180c40c6607b30e96bdc34006a3efaaf97c88ff4f44821fb3c7f6503487b",
          "blockNumber": "0x64bfab",
          "transactionHash": "0x78b297695c2d6bfc1282eec0b3d36e1ad32c5bb02dc7c05314c94bc1acd3cba4",
          "transactionIndex": "0x50",
          "logIndex": "0x5a",
          "removed": false
        }
      ],
      "logsBloom": "0x00000008000000000000000000000000001000000000000000000000000000000000000000000000001000000000000000000000000000000000000000200000004000000000000000000000000000000000000000000000000000000080000000000000000000000000000000000000000000200000000000000000000000000000000000000000000000000000000000000000000000000000000000000000020000000000000000000002000000000000000200000000000000000000000000008000000000000000000000000000000000000000000000000000000000000010000000000000000000000000000000000000000000000000000000000000",
      "type": "0x2",
      "transactionHash": "0x78b297695c2d6bfc1282eec0b3d36e1ad32c5bb02dc7c05314c94bc1acd3cba4",
      "transactionIndex": "0x50",
      "blockHash": "0x7f62180c40c6607b30e96bdc34006a3efaaf97c88ff4f44821fb3c7f6503487b",
      "blockNumber": "0x64bfab",
      "gasUsed": "0xb613",
      "effectiveGasPrice": "0x411c4e03",
      "from": "0xe1858a2cc57581cda70f089c9b7f1edde13e8fee",
      "to": "0xf3af54943d6ef98c2b083fc6e69d36019ee5459d",
      "contractAddress": null
    },
    {
      "status": "0x1",
      "cumulativeGasUsed": "0xa836fb",
      "logs": [
        {
          "address": "0xf3af54943d6ef98c2b083fc6e69d36019ee5459d",
          "topics": [
            "0xddf252ad1be2c89b69c2b068fc378daa952ba7f163c4a11628f55a4df523b3ef",
            "0x000000000000000000000000e1858a2cc57581cda70f089c9b7f1edde13e8fee",
            "0x000000000000000000000000440e21ab40b8a33ec02f3a71c54ccd860a5f5861"
          ],
          "data": "0x0000000000000000000000000000000000000000000000000de0b6b3a7640000",
          "blockHash": "0x7f62180c40c6607b30e96bdc34006a3efaaf97c88ff4f44821fb3c7f6503487b",
          "blockNumber": "0x64bfab",
          "transactionHash": "0xa4e0288a7698bee8eb47a7060f24e744e8b99eaf6d623b6243a2eaaf10692318",
          "transactionIndex": "0x51",
          "logIndex": "0x5b",
          "removed": false
        }
      ],
      "logsBloom": "0x00000008000000000000000000000000001000000000000000000000000000000000000000000000001000000000000000000000000000000000000000000000004000000000000000000008000000000000000000000000000000000080000000000000000000000000000000000000000000200000000000000010000000000000000000000000000000000000000000000000000000000000000000000000000000000000000000000002000000000000000200000000000000000000000000008002000000000000000000000000000000000000000000000000000000000000000000000000000000000000000000000000000000000000000000000000",
      "type": "0x2",
      "transactionHash": "0xa4e0288a7698bee8eb47a7060f24e744e8b99eaf6d623b6243a2eaaf10692318",
      "transactionIndex": "0x51",
      "blockHash": "0x7f62180c40c6607b30e96bdc34006a3efaaf97c88ff4f44821fb3c7f6503487b",
      "blockNumber": "0x64bfab",
      "gasUsed": "0xf880",
      "effectiveGasPrice": "0x411c4e03",
      "from": "0xe1858a2cc57581cda70f089c9b7f1edde13e8fee",
      "to": "0x440e21ab40b8a33ec02f3a71c54ccd860a5f5861",
      "contractAddress": null
    }
  ],
  "libraries": [],
  "pending": [],
  "returns": {},
  "timestamp": 1725056705,
  "chain": 11155111,
  "commit": "bac9c5c"
}