{
  "transactions": [
    {
      "hash": "0x4121887781865bd87465f264853f9be2d77425825e2a34b8204eaa0d44ea1208",
      "transactionType": "CALL",
      "contractName": null,
      "contractAddress": "0xf3af54943d6ef98c2b083fc6e69d36019ee5459d",
      "function": "approve(address,uint256)",
      "arguments": [
        "0x440E21aB40b8A33EC02f3a71C54ccD860A5f5861",
        "115792089237316195423570985008687907853269984665640564039457584007913129639935"
      ],
      "transaction": {
        "from": "0xe1858a2cc57581cda70f089c9b7f1edde13e8fee",
        "to": "0xf3af54943d6ef98c2b083fc6e69d36019ee5459d",
        "gas": "0x901e",
        "value": "0x0",
        "input": "0x095ea7b3000000000000000000000000440e21ab40b8a33ec02f3a71c54ccd860a5f5861ffffffffffffffffffffffffffffffffffffffffffffffffffffffffffffffff",
        "nonce": "0x9",
        "chainId": "0xaa36a7"
      },
      "additionalContracts": [],
      "isFixedGasLimit": false
    },
    {
      "hash": "0xf0cd83c86a74b30c5954572d0e1007bee0aed19d59951ac3a4f5052883f120c1",
      "transactionType": "CALL",
      "contractName": null,
      "contractAddress": "0x440e21ab40b8a33ec02f3a71c54ccd860a5f5861",
      "function": "deposit()",
      "arguments": [],
      "transaction": {
        "from": "0xe1858a2cc57581cda70f089c9b7f1edde13e8fee",
        "to": "0x440e21ab40b8a33ec02f3a71c54ccd860a5f5861",
        "gas": "0xfaf9",
        "value": "0x0",
        "input": "0xd0e30db0",
        "nonce": "0xa",
        "chainId": "0xaa36a7"
      },
      "additionalContracts": [],
      "isFixedGasLimit": false
    }
  ],
  "receipts": [
    {
      "status": "0x1",
      "cumulativeGasUsed": "0x7a3f44",
      "logs": [
        {
          "address": "0xf3af54943d6ef98c2b083fc6e69d36019ee5459d",
          "topics": [
            "0x8c5be1e5ebec7d5bd14f71427d1e84f3dd0314c0f7b2291e5b200ac8c7c3b925",
            "0x000000000000000000000000e1858a2cc57581cda70f089c9b7f1edde13e8fee",
            "0x000000000000000000000000440e21ab40b8a33ec02f3a71c54ccd860a5f5861"
          ],
          "data": "0xffffffffffffffffffffffffffffffffffffffffffffffffffffffffffffffff",
          "blockHash": "0x8a4b3115854cb45397f0851f68b0d7c7bff3e918d1c768da6b5f7865f2fd2d9e",
          "blockNumber": "0x64bfae",
          "transactionHash": "0x4121887781865bd87465f264853f9be2d77425825e2a34b8204eaa0d44ea1208",
          "transactionIndex": "0x36",
          "logIndex": "0x22",
          "removed": false
        }
      ],
      "logsBloom": "0x00000008000000000000000000000000001000000000000000000000000000000000000000000000001000000000000000000000000000000000000000200000004000000000000000000000000000000000000000000000000000000080000000000000000000000000000000000000000000200000000000000000000000000000000000000000000000000000000000000000000000000000000000000000020000000000000000000002000000000000000200000000000000000000000000008000000000000000000000000000000000000000000000000000000000000010000000000000000000000000000000000000000000000000000000000000",
      "type": "0x2",
      "transactionHash": "0x4121887781865bd87465f264853f9be2d77425825e2a34b8204eaa0d44ea1208",
      "transactionIndex": "0x36",
      "blockHash": "0x8a4b3115854cb45397f0851f68b0d7c7bff3e918d1c768da6b5f7865f2fd2d9e",
      "blockNumber": "0x64bfae",
      "gasUsed": "0x6857",
      "effectiveGasPrice": "0x412be135",
      "from": "0xe1858a2cc57581cda70f089c9b7f1edde13e8fee",
      "to": "0xf3af54943d6ef98c2b083fc6e69d36019ee5459d",
      "contractAddress": null
    },
    {
      "status": "0x1",
      "cumulativeGasUsed": "0x7b37c4",
      "logs": [
        {
          "address": "0xf3af54943d6ef98c2b083fc6e69d36019ee5459d",
          "topics": [
            "0xddf252ad1be2c89b69c2b068fc378daa952ba7f163c4a11628f55a4df523b3ef",
            "0x000000000000000000000000e1858a2cc57581cda70f089c9b7f1edde13e8fee",
            "0x000000000000000000000000440e21ab40b8a33ec02f3a71c54ccd860a5f5861"
          ],
          "data": "0x0000000000000000000000000000000000000000000000000de0b6b3a7640000",
          "blockHash": "0x8a4b3115854cb45397f0851f68b0d7c7bff3e918d1c768da6b5f7865f2fd2d9e",
          "blockNumber": "0x64bfae",
          "transactionHash": "0xf0cd83c86a74b30c5954572d0e1007bee0aed19d59951ac3a4f5052883f120c1",
          "transactionIndex": "0x37",
          "logIndex": "0x23",
          "removed": false
        }
      ],
      "logsBloom": "0x00000008000000000000000000000000001000000000000000000000000000000000000000000000001000000000000000000000000000000000000000000000004000000000000000000008000000000000000000000000000000000080000000000000000000000000000000000000000000200000000000000010000000000000000000000000000000000000000000000000000000000000000000000000000000000000000000000002000000000000000200000000000000000000000000008002000000000000000000000000000000000000000000000000000000000000000000000000000000000000000000000000000000000000000000000000",
      "type": "0x2",
      "transactionHash": "0xf0cd83c86a74b30c5954572d0e1007bee0aed19d59951ac3a4f5052883f120c1",
      "transactionIndex": "0x37",
      "blockHash": "0x8a4b3115854cb45397f0851f68b0d7c7bff3e918d1c768da6b5f7865f2fd2d9e",
      "blockNumber": "0x64bfae",
      "gasUsed": "0xf880",
      "effectiveGasPrice": "0x412be135",
      "from": "0xe1858a2cc57581cda70f089c9b7f1edde13e8fee",
      "to": "0x440e21ab40b8a33ec02f3a71c54ccd860a5f5861",
      "contractAddress": null
    }
  ],
  "libraries": [],
  "pending": [],
  "returns": {},
  "timestamp": 1725056738,
  "chain": 11155111,
  "commit": "bac9c5c"
}